{
  "_format": "hh-sol-artifact-1",
  "contractName": "NFTMarketplaceUpgradable",
  "sourceName": "contracts/ERC721Up.sol",
  "abi": [
    {
      "anonymous": false,
      "inputs": [
        {
          "indexed": true,
          "internalType": "address",
          "name": "owner",
          "type": "address"
        },
        {
          "indexed": true,
          "internalType": "address",
          "name": "approved",
          "type": "address"
        },
        {
          "indexed": true,
          "internalType": "uint256",
          "name": "tokenId",
          "type": "uint256"
        }
      ],
      "name": "Approval",
      "type": "event"
    },
    {
      "anonymous": false,
      "inputs": [
        {
          "indexed": true,
          "internalType": "address",
          "name": "owner",
          "type": "address"
        },
        {
          "indexed": true,
          "internalType": "address",
          "name": "operator",
          "type": "address"
        },
        {
          "indexed": false,
          "internalType": "bool",
          "name": "approved",
          "type": "bool"
        }
      ],
      "name": "ApprovalForAll",
      "type": "event"
    },
    {
      "anonymous": false,
      "inputs": [
        {
          "indexed": true,
          "internalType": "address",
          "name": "previousOwner",
          "type": "address"
        },
        {
          "indexed": true,
          "internalType": "address",
          "name": "newOwner",
          "type": "address"
        }
      ],
      "name": "OwnershipTransferred",
      "type": "event"
    },
    {
      "anonymous": false,
      "inputs": [
        {
          "indexed": false,
          "internalType": "address",
          "name": "account",
          "type": "address"
        }
      ],
      "name": "Paused",
      "type": "event"
    },
    {
      "anonymous": false,
      "inputs": [
        {
          "indexed": true,
          "internalType": "bytes32",
          "name": "role",
          "type": "bytes32"
        },
        {
          "indexed": true,
          "internalType": "bytes32",
          "name": "previousAdminRole",
          "type": "bytes32"
        },
        {
          "indexed": true,
          "internalType": "bytes32",
          "name": "newAdminRole",
          "type": "bytes32"
        }
      ],
      "name": "RoleAdminChanged",
      "type": "event"
    },
    {
      "anonymous": false,
      "inputs": [
        {
          "indexed": true,
          "internalType": "bytes32",
          "name": "role",
          "type": "bytes32"
        },
        {
          "indexed": true,
          "internalType": "address",
          "name": "account",
          "type": "address"
        },
        {
          "indexed": true,
          "internalType": "address",
          "name": "sender",
          "type": "address"
        }
      ],
      "name": "RoleGranted",
      "type": "event"
    },
    {
      "anonymous": false,
      "inputs": [
        {
          "indexed": true,
          "internalType": "bytes32",
          "name": "role",
          "type": "bytes32"
        },
        {
          "indexed": true,
          "internalType": "address",
          "name": "account",
          "type": "address"
        },
        {
          "indexed": true,
          "internalType": "address",
          "name": "sender",
          "type": "address"
        }
      ],
      "name": "RoleRevoked",
      "type": "event"
    },
    {
      "anonymous": false,
      "inputs": [
        {
          "indexed": true,
          "internalType": "address",
          "name": "from",
          "type": "address"
        },
        {
          "indexed": true,
          "internalType": "address",
          "name": "to",
          "type": "address"
        },
        {
          "indexed": true,
          "internalType": "uint256",
          "name": "tokenId",
          "type": "uint256"
        }
      ],
      "name": "Transfer",
      "type": "event"
    },
    {
      "anonymous": false,
      "inputs": [
        {
          "indexed": false,
          "internalType": "address",
          "name": "account",
          "type": "address"
        }
      ],
      "name": "Unpaused",
      "type": "event"
    },
    {
      "inputs": [],
      "name": "ADMIN_ROLE",
      "outputs": [
        {
          "internalType": "bytes32",
          "name": "",
          "type": "bytes32"
        }
      ],
      "stateMutability": "view",
      "type": "function"
    },
    {
      "inputs": [],
      "name": "DEFAULT_ADMIN_ROLE",
      "outputs": [
        {
          "internalType": "bytes32",
          "name": "",
          "type": "bytes32"
        }
      ],
      "stateMutability": "view",
      "type": "function"
    },
    {
      "inputs": [],
      "name": "MINTER_ROLE",
      "outputs": [
        {
          "internalType": "bytes32",
          "name": "",
          "type": "bytes32"
        }
      ],
      "stateMutability": "view",
      "type": "function"
    },
    {
      "inputs": [],
      "name": "PAUSER_ROLE",
      "outputs": [
        {
          "internalType": "bytes32",
          "name": "",
          "type": "bytes32"
        }
      ],
      "stateMutability": "view",
      "type": "function"
    },
    {
      "inputs": [
        {
          "internalType": "address",
          "name": "account",
          "type": "address"
        },
        {
          "internalType": "bytes32",
          "name": "role",
          "type": "bytes32"
        }
      ],
      "name": "addMinterOrPauser",
      "outputs": [],
      "stateMutability": "nonpayable",
      "type": "function"
    },
    {
      "inputs": [
        {
          "internalType": "address",
          "name": "to",
          "type": "address"
        },
        {
          "internalType": "uint256",
          "name": "tokenId",
          "type": "uint256"
        }
      ],
      "name": "approve",
      "outputs": [],
      "stateMutability": "nonpayable",
      "type": "function"
    },
    {
      "inputs": [
        {
          "internalType": "address",
          "name": "owner",
          "type": "address"
        }
      ],
      "name": "balanceOf",
      "outputs": [
        {
          "internalType": "uint256",
          "name": "",
          "type": "uint256"
        }
      ],
      "stateMutability": "view",
      "type": "function"
    },
    {
      "inputs": [
        {
          "internalType": "uint256",
          "name": "tokenId",
          "type": "uint256"
        }
      ],
      "name": "burn",
      "outputs": [],
      "stateMutability": "nonpayable",
      "type": "function"
    },
    {
      "inputs": [
        {
          "internalType": "address",
          "name": "newAdmin",
          "type": "address"
        }
      ],
      "name": "changeRootAdmin",
      "outputs": [],
      "stateMutability": "nonpayable",
      "type": "function"
    },
    {
      "inputs": [
        {
          "internalType": "uint256",
          "name": "tokenId",
          "type": "uint256"
        }
      ],
      "name": "getApproved",
      "outputs": [
        {
          "internalType": "address",
          "name": "",
          "type": "address"
        }
      ],
      "stateMutability": "view",
      "type": "function"
    },
    {
      "inputs": [
        {
          "internalType": "bytes32",
          "name": "role",
          "type": "bytes32"
        }
      ],
      "name": "getRoleAdmin",
      "outputs": [
        {
          "internalType": "bytes32",
          "name": "",
          "type": "bytes32"
        }
      ],
      "stateMutability": "view",
      "type": "function"
    },
    {
      "inputs": [
        {
          "internalType": "bytes32",
          "name": "role",
          "type": "bytes32"
        },
        {
          "internalType": "uint256",
          "name": "index",
          "type": "uint256"
        }
      ],
      "name": "getRoleMember",
      "outputs": [
        {
          "internalType": "address",
          "name": "",
          "type": "address"
        }
      ],
      "stateMutability": "view",
      "type": "function"
    },
    {
      "inputs": [
        {
          "internalType": "bytes32",
          "name": "role",
          "type": "bytes32"
        }
      ],
      "name": "getRoleMemberCount",
      "outputs": [
        {
          "internalType": "uint256",
          "name": "",
          "type": "uint256"
        }
      ],
      "stateMutability": "view",
      "type": "function"
    },
    {
      "inputs": [
        {
          "internalType": "bytes32",
          "name": "role",
          "type": "bytes32"
        },
        {
          "internalType": "address",
          "name": "account",
          "type": "address"
        }
      ],
      "name": "grantRole",
      "outputs": [],
      "stateMutability": "nonpayable",
      "type": "function"
    },
    {
      "inputs": [
        {
          "internalType": "bytes32",
          "name": "role",
          "type": "bytes32"
        },
        {
          "internalType": "address",
          "name": "account",
          "type": "address"
        }
      ],
      "name": "hasRole",
      "outputs": [
        {
          "internalType": "bool",
          "name": "",
          "type": "bool"
        }
      ],
      "stateMutability": "view",
      "type": "function"
    },
    {
      "inputs": [
        {
          "internalType": "string",
          "name": "name",
          "type": "string"
        },
        {
          "internalType": "string",
          "name": "symbol",
          "type": "string"
        },
        {
          "internalType": "string",
          "name": "baseTokenURI",
          "type": "string"
        },
        {
          "internalType": "address",
          "name": "rootAdmin",
          "type": "address"
        }
      ],
      "name": "initialize",
      "outputs": [],
      "stateMutability": "nonpayable",
      "type": "function"
    },
    {
      "inputs": [
        {
          "internalType": "address",
          "name": "owner",
          "type": "address"
        },
        {
          "internalType": "address",
          "name": "operator",
          "type": "address"
        }
      ],
      "name": "isApprovedForAll",
      "outputs": [
        {
          "internalType": "bool",
          "name": "",
          "type": "bool"
        }
      ],
      "stateMutability": "view",
      "type": "function"
    },
    {
      "inputs": [
        {
          "internalType": "address",
          "name": "account",
          "type": "address"
        }
      ],
      "name": "isApprovedForOwner",
      "outputs": [
        {
          "internalType": "bool",
          "name": "approval",
          "type": "bool"
        }
      ],
      "stateMutability": "view",
      "type": "function"
    },
    {
      "inputs": [
        {
          "internalType": "address",
          "name": "receiver",
          "type": "address"
        },
        {
          "internalType": "uint256",
          "name": "collectibleId",
          "type": "uint256"
        },
        {
          "internalType": "string",
          "name": "IPFSHash",
          "type": "string"
        }
      ],
      "name": "mint",
      "outputs": [],
      "stateMutability": "nonpayable",
      "type": "function"
    },
    {
      "inputs": [],
      "name": "name",
      "outputs": [
        {
          "internalType": "string",
          "name": "",
          "type": "string"
        }
      ],
      "stateMutability": "view",
      "type": "function"
    },
    {
      "inputs": [],
      "name": "owner",
      "outputs": [
        {
          "internalType": "address",
          "name": "",
          "type": "address"
        }
      ],
      "stateMutability": "view",
      "type": "function"
    },
    {
      "inputs": [
        {
          "internalType": "uint256",
          "name": "tokenId",
          "type": "uint256"
        }
      ],
      "name": "ownerOf",
      "outputs": [
        {
          "internalType": "address",
          "name": "",
          "type": "address"
        }
      ],
      "stateMutability": "view",
      "type": "function"
    },
    {
      "inputs": [],
      "name": "pause",
      "outputs": [],
      "stateMutability": "nonpayable",
      "type": "function"
    },
    {
      "inputs": [],
      "name": "paused",
      "outputs": [
        {
          "internalType": "bool",
          "name": "",
          "type": "bool"
        }
      ],
      "stateMutability": "view",
      "type": "function"
    },
    {
      "inputs": [],
      "name": "renounceOwnership",
      "outputs": [],
      "stateMutability": "nonpayable",
      "type": "function"
    },
    {
      "inputs": [
        {
          "internalType": "bytes32",
          "name": "role",
          "type": "bytes32"
        },
        {
          "internalType": "address",
          "name": "account",
          "type": "address"
        }
      ],
      "name": "renounceRole",
      "outputs": [],
      "stateMutability": "nonpayable",
      "type": "function"
    },
    {
      "inputs": [
        {
          "internalType": "bytes32",
          "name": "role",
          "type": "bytes32"
        },
        {
          "internalType": "address",
          "name": "account",
          "type": "address"
        }
      ],
      "name": "revokeRole",
      "outputs": [],
      "stateMutability": "nonpayable",
      "type": "function"
    },
    {
      "inputs": [
        {
          "internalType": "address",
          "name": "from",
          "type": "address"
        },
        {
          "internalType": "address",
          "name": "to",
          "type": "address"
        },
        {
          "internalType": "uint256",
          "name": "tokenId",
          "type": "uint256"
        }
      ],
      "name": "safeTransferFrom",
      "outputs": [],
      "stateMutability": "nonpayable",
      "type": "function"
    },
    {
      "inputs": [
        {
          "internalType": "address",
          "name": "from",
          "type": "address"
        },
        {
          "internalType": "address",
          "name": "to",
          "type": "address"
        },
        {
          "internalType": "uint256",
          "name": "tokenId",
          "type": "uint256"
        },
        {
          "internalType": "bytes",
          "name": "_data",
          "type": "bytes"
        }
      ],
      "name": "safeTransferFrom",
      "outputs": [],
      "stateMutability": "nonpayable",
      "type": "function"
    },
    {
      "inputs": [
        {
          "internalType": "address",
          "name": "operator",
          "type": "address"
        },
        {
          "internalType": "bool",
          "name": "approved",
          "type": "bool"
        }
      ],
      "name": "setApprovalForAll",
      "outputs": [],
      "stateMutability": "nonpayable",
      "type": "function"
    },
    {
      "inputs": [
        {
          "internalType": "bool",
          "name": "approval",
          "type": "bool"
        },
        {
          "internalType": "address",
          "name": "minterAccount",
          "type": "address"
        }
      ],
      "name": "setApprovalForMinter",
      "outputs": [],
      "stateMutability": "nonpayable",
      "type": "function"
    },
    {
      "inputs": [
        {
          "internalType": "bool",
          "name": "approval",
          "type": "bool"
        }
      ],
      "name": "setApprovalForOwner",
      "outputs": [],
      "stateMutability": "nonpayable",
      "type": "function"
    },
    {
      "inputs": [
        {
          "internalType": "bytes4",
          "name": "interfaceId",
          "type": "bytes4"
        }
      ],
      "name": "supportsInterface",
      "outputs": [
        {
          "internalType": "bool",
          "name": "",
          "type": "bool"
        }
      ],
      "stateMutability": "view",
      "type": "function"
    },
    {
      "inputs": [],
      "name": "symbol",
      "outputs": [
        {
          "internalType": "string",
          "name": "",
          "type": "string"
        }
      ],
      "stateMutability": "view",
      "type": "function"
    },
    {
      "inputs": [
        {
          "internalType": "uint256",
          "name": "index",
          "type": "uint256"
        }
      ],
      "name": "tokenByIndex",
      "outputs": [
        {
          "internalType": "uint256",
          "name": "",
          "type": "uint256"
        }
      ],
      "stateMutability": "view",
      "type": "function"
    },
    {
      "inputs": [
        {
          "internalType": "address",
          "name": "owner",
          "type": "address"
        },
        {
          "internalType": "uint256",
          "name": "index",
          "type": "uint256"
        }
      ],
      "name": "tokenOfOwnerByIndex",
      "outputs": [
        {
          "internalType": "uint256",
          "name": "",
          "type": "uint256"
        }
      ],
      "stateMutability": "view",
      "type": "function"
    },
    {
      "inputs": [
        {
          "internalType": "uint256",
          "name": "tokenId",
          "type": "uint256"
        }
      ],
      "name": "tokenURI",
      "outputs": [
        {
          "internalType": "string",
          "name": "",
          "type": "string"
        }
      ],
      "stateMutability": "view",
      "type": "function"
    },
    {
      "inputs": [],
      "name": "totalSupply",
      "outputs": [
        {
          "internalType": "uint256",
          "name": "",
          "type": "uint256"
        }
      ],
      "stateMutability": "view",
      "type": "function"
    },
    {
      "inputs": [
        {
          "internalType": "address",
          "name": "from",
          "type": "address"
        },
        {
          "internalType": "address",
          "name": "to",
          "type": "address"
        },
        {
          "internalType": "uint256",
          "name": "tokenId",
          "type": "uint256"
        }
      ],
      "name": "transferFrom",
      "outputs": [],
      "stateMutability": "nonpayable",
      "type": "function"
    },
    {
      "inputs": [
        {
          "internalType": "address",
          "name": "newOwner",
          "type": "address"
        }
      ],
      "name": "transferOwnership",
      "outputs": [],
      "stateMutability": "nonpayable",
      "type": "function"
    },
    {
      "inputs": [],
      "name": "unpause",
      "outputs": [],
      "stateMutability": "nonpayable",
      "type": "function"
    }
  ],
  "bytecode": "0x608060405234801561001057600080fd5b506162a580620000216000396000f3fe608060405234801561001057600080fd5b50600436106102535760003560e01c806370a0823111610146578063a217fddf116100c3578063d3fc986411610087578063d3fc9864146106f4578063d539139314610710578063d547741f1461072e578063e63ab1e91461074a578063e985e9c514610768578063f2fde38b1461079857610253565b8063a217fddf1461063e578063a22cb4651461065c578063b88d4fde14610678578063c87b56dd14610694578063ca15c873146106c457610253565b80638670a86e1161010a5780638670a86e146105725780638da5cb5b146105a25780639010d07c146105c057806391d14854146105f057806395d89b411461062057610253565b806370a08231146104f4578063715018a6146105245780637536fad51461052e57806375b238fc1461054a5780638456cb591461056857610253565b806336461704116101d45780634f6ccce7116101985780634f6ccce71461043e5780635c6d8da11461046e5780635c975abb1461048a5780636352211e146104a857806366eb463f146104d857610253565b806336461704146103c457806336568abe146103e05780633f4ba83a146103fc57806342842e0e1461040657806342966c681461042257610253565b806318160ddd1161021b57806318160ddd1461030e57806323b872dd1461032c578063248a9ca3146103485780632f2ff15d146103785780632f745c591461039457610253565b806301ffc9a71461025857806306fdde0314610288578063081812fc146102a6578063095ea7b3146102d657806316508194146102f2575b600080fd5b610272600480360381019061026d9190614882565b6107b4565b60405161027f9190615071565b60405180910390f35b6102906107c6565b60405161029d91906150a7565b60405180910390f35b6102c060048036038101906102bb919061497f565b610858565b6040516102cd919061500a565b60405180910390f35b6102f060048036038101906102eb91906146d9565b6108dd565b005b61030c6004803603810190610307919061477c565b6109f5565b005b610316610a32565b60405161032391906154c9565b60405180910390f35b61034660048036038101906103419190614597565b610a40565b005b610362600480360381019061035d91906147e1565b610aa0565b60405161036f919061508c565b60405180910390f35b610392600480360381019061038d919061480a565b610ac0565b005b6103ae60048036038101906103a991906146d9565b610b62565b6040516103bb91906154c9565b60405180910390f35b6103de60048036038101906103d9919061469d565b610c08565b005b6103fa60048036038101906103f5919061480a565b610d1d565b005b610404610da0565b005b610420600480360381019061041b9190614597565b610e96565b005b61043c6004803603810190610437919061497f565b610eb6565b005b6104586004803603810190610453919061497f565b610f12565b60405161046591906154c9565b60405180910390f35b610488600480360381019061048391906148d4565b610faa565b005b61049261109e565b60405161049f9190615071565b60405180910390f35b6104c260048036038101906104bd919061497f565b6110b6565b6040516104cf919061500a565b60405180910390f35b6104f260048036038101906104ed9190614532565b611168565b005b61050e60048036038101906105099190614532565b6111ef565b60405161051b91906154c9565b60405180910390f35b61052c6112a7565b005b610548600480360381019061054391906147a5565b61132f565b005b6105526113a6565b60405161055f919061508c565b60405180910390f35b6105706113ca565b005b61058c60048036038101906105879190614532565b6114c0565b6040516105999190615071565b60405180910390f35b6105aa611502565b6040516105b7919061500a565b60405180910390f35b6105da60048036038101906105d59190614846565b61152c565b6040516105e7919061500a565b60405180910390f35b61060a6004803603810190610605919061480a565b61155b565b6040516106179190615071565b60405180910390f35b6106286115c6565b60405161063591906150a7565b60405180910390f35b610646611658565b604051610653919061508c565b60405180910390f35b61067660048036038101906106719190614661565b61165f565b005b610692600480360381019061068d91906145e6565b611675565b005b6106ae60048036038101906106a9919061497f565b6116d7565b6040516106bb91906150a7565b60405180910390f35b6106de60048036038101906106d991906147e1565b61186c565b6040516106eb91906154c9565b60405180910390f35b61070e60048036038101906107099190614715565b611890565b005b610718611995565b604051610725919061508c565b60405180910390f35b6107486004803603810190610743919061480a565b6119b9565b005b6107526119e2565b60405161075f919061508c565b60405180910390f35b610782600480360381019061077d919061455b565b611a06565b60405161078f9190615071565b60405180910390f35b6107b260048036038101906107ad9190614532565b611a9b565b005b60006107bf82611b44565b9050919050565b606060fb80546107d5906157c2565b80601f0160208091040260200160405190810160405280929190818152602001828054610801906157c2565b801561084e5780601f106108235761010080835404028352916020019161084e565b820191906000526020600020905b81548152906001019060200180831161083157829003601f168201915b5050505050905090565b600061086382611bbe565b6108a2576040517f08c379a000000000000000000000000000000000000000000000000000000000815260040161089990615349565b60405180910390fd5b60ff600083815260200190815260200160002060009054906101000a900473ffffffffffffffffffffffffffffffffffffffff169050919050565b60006108e8826110b6565b90508073ffffffffffffffffffffffffffffffffffffffff168373ffffffffffffffffffffffffffffffffffffffff161415610959576040517f08c379a0000000000000000000000000000000000000000000000000000000008152600401610950906153c9565b60405180910390fd5b8073ffffffffffffffffffffffffffffffffffffffff16610978611c2a565b73ffffffffffffffffffffffffffffffffffffffff1614806109a757506109a6816109a1611c2a565b611a06565b5b6109e6576040517f08c379a00000000000000000000000000000000000000000000000000000000081526004016109dd906152a9565b60405180910390fd5b6109f08383611c32565b505050565b6000610a227fa49807205ce4d355092ef5a8a18f56e8913cf4a201fbe287825b095693c21775600061152c565b9050610a2e818361165f565b5050565b600061012f80549050905090565b610a51610a4b611c2a565b82611ceb565b610a90576040517f08c379a0000000000000000000000000000000000000000000000000000000008152600401610a87906153e9565b60405180910390fd5b610a9b838383611dc9565b505050565b600060656000838152602001908152602001600020600101549050919050565b7fa49807205ce4d355092ef5a8a18f56e8913cf4a201fbe287825b095693c21775821415610b54576000610b137fa49807205ce4d355092ef5a8a18f56e8913cf4a201fbe287825b095693c2177561186c565b14610b53576040517f08c379a0000000000000000000000000000000000000000000000000000000008152600401610b4a906151e9565b60405180910390fd5b5b610b5e8282612030565b5050565b6000610b6d836111ef565b8210610bae576040517f08c379a0000000000000000000000000000000000000000000000000000000008152600401610ba590615129565b60405180910390fd5b61012d60008473ffffffffffffffffffffffffffffffffffffffff1673ffffffffffffffffffffffffffffffffffffffff168152602001908152602001600020600083815260200190815260200160002054905092915050565b610c397fa49807205ce4d355092ef5a8a18f56e8913cf4a201fbe287825b095693c21775610c34611c2a565b61155b565b80610c7d5750610c47611c2a565b73ffffffffffffffffffffffffffffffffffffffff16610c65611502565b73ffffffffffffffffffffffffffffffffffffffff16145b610cbc576040517f08c379a0000000000000000000000000000000000000000000000000000000008152600401610cb390615269565b60405180910390fd5b7f9f2df0fed2c77648de5860a4cc508cd0818c85b8b8a1ab4ceeef8d981c8956a6811480610d0957507f65d7a28e3265b37a6474929f336521b332c1681b933f6cb9f3376673440d862a81145b15610d1957610d188183612059565b5b5050565b610d25611c2a565b73ffffffffffffffffffffffffffffffffffffffff168173ffffffffffffffffffffffffffffffffffffffff1614610d92576040517f08c379a0000000000000000000000000000000000000000000000000000000008152600401610d89906154a9565b60405180910390fd5b610d9c8282612067565b5050565b610dd17fa49807205ce4d355092ef5a8a18f56e8913cf4a201fbe287825b095693c21775610dcc611c2a565b61155b565b80610e095750610e087f65d7a28e3265b37a6474929f336521b332c1681b933f6cb9f3376673440d862a610e03611c2a565b61155b565b5b80610e4d5750610e17611c2a565b73ffffffffffffffffffffffffffffffffffffffff16610e35611502565b73ffffffffffffffffffffffffffffffffffffffff16145b610e8c576040517f08c379a0000000000000000000000000000000000000000000000000000000008152600401610e8390615449565b60405180910390fd5b610e9461209b565b565b610eb183838360405180602001604052806000815250611675565b505050565b610ec7610ec1611c2a565b82611ceb565b610f06576040517f08c379a0000000000000000000000000000000000000000000000000000000008152600401610efd90615469565b60405180910390fd5b610f0f8161213e565b50565b6000610f1c610a32565b8210610f5d576040517f08c379a0000000000000000000000000000000000000000000000000000000008152600401610f5490615409565b60405180910390fd5b61012f8281548110610f98577f4e487b7100000000000000000000000000000000000000000000000000000000600052603260045260246000fd5b90600052602060002001549050919050565b600060019054906101000a900460ff16610fd25760008054906101000a900460ff1615610fdb565b610fda61225b565b5b61101a576040517f08c379a000000000000000000000000000000000000000000000000000000000815260040161101190615309565b60405180910390fd5b60008060019054906101000a900460ff16159050801561106a576001600060016101000a81548160ff02191690831515021790555060016000806101000a81548160ff0219169083151502179055505b6110768585858561226c565b80156110975760008060016101000a81548160ff0219169083151502179055505b5050505050565b600061019160009054906101000a900460ff16905090565b60008060fd600084815260200190815260200160002060009054906101000a900473ffffffffffffffffffffffffffffffffffffffff169050600073ffffffffffffffffffffffffffffffffffffffff168173ffffffffffffffffffffffffffffffffffffffff16141561115f576040517f08c379a0000000000000000000000000000000000000000000000000000000008152600401611156906152e9565b60405180910390fd5b80915050919050565b60006111957fa49807205ce4d355092ef5a8a18f56e8913cf4a201fbe287825b095693c21775600061152c565b90506111c17fa49807205ce4d355092ef5a8a18f56e8913cf4a201fbe287825b095693c21775826119b9565b6111eb7fa49807205ce4d355092ef5a8a18f56e8913cf4a201fbe287825b095693c2177583610ac0565b5050565b60008073ffffffffffffffffffffffffffffffffffffffff168273ffffffffffffffffffffffffffffffffffffffff161415611260576040517f08c379a0000000000000000000000000000000000000000000000000000000008152600401611257906152c9565b60405180910390fd5b60fe60008373ffffffffffffffffffffffffffffffffffffffff1673ffffffffffffffffffffffffffffffffffffffff168152602001908152602001600020549050919050565b6112af611c2a565b73ffffffffffffffffffffffffffffffffffffffff166112cd611502565b73ffffffffffffffffffffffffffffffffffffffff1614611323576040517f08c379a000000000000000000000000000000000000000000000000000000000815260040161131a90615389565b60405180910390fd5b61132d60006123b2565b565b6113597f9f2df0fed2c77648de5860a4cc508cd0818c85b8b8a1ab4ceeef8d981c8956a68261155b565b611398576040517f08c379a000000000000000000000000000000000000000000000000000000000815260040161138f906151c9565b60405180910390fd5b6113a2818361165f565b5050565b7fa49807205ce4d355092ef5a8a18f56e8913cf4a201fbe287825b095693c2177581565b6113fb7fa49807205ce4d355092ef5a8a18f56e8913cf4a201fbe287825b095693c217756113f6611c2a565b61155b565b8061143357506114327f65d7a28e3265b37a6474929f336521b332c1681b933f6cb9f3376673440d862a61142d611c2a565b61155b565b5b806114775750611441611c2a565b73ffffffffffffffffffffffffffffffffffffffff1661145f611502565b73ffffffffffffffffffffffffffffffffffffffff16145b6114b6576040517f08c379a00000000000000000000000000000000000000000000000000000000081526004016114ad90615449565b60405180910390fd5b6114be612478565b565b6000806114ee7fa49807205ce4d355092ef5a8a18f56e8913cf4a201fbe287825b095693c21775600061152c565b90506114fa8382611a06565b915050919050565b600060c960009054906101000a900473ffffffffffffffffffffffffffffffffffffffff16905090565b6000611553826097600086815260200190815260200160002061251c90919063ffffffff16565b905092915050565b60006065600084815260200190815260200160002060000160008373ffffffffffffffffffffffffffffffffffffffff1673ffffffffffffffffffffffffffffffffffffffff16815260200190815260200160002060009054906101000a900460ff16905092915050565b606060fc80546115d5906157c2565b80601f0160208091040260200160405190810160405280929190818152602001828054611601906157c2565b801561164e5780601f106116235761010080835404028352916020019161164e565b820191906000526020600020905b81548152906001019060200180831161163157829003601f168201915b5050505050905090565b6000801b81565b61167161166a611c2a565b8383612536565b5050565b611686611680611c2a565b83611ceb565b6116c5576040517f08c379a00000000000000000000000000000000000000000000000000000000081526004016116bc906153e9565b60405180910390fd5b6116d1848484846126a4565b50505050565b60606116e282611bbe565b611721576040517f08c379a0000000000000000000000000000000000000000000000000000000008152600401611718906153a9565b60405180910390fd5b60006101f660008481526020019081526020016000208054611742906157c2565b80601f016020809104026020016040519081016040528092919081815260200182805461176e906157c2565b80156117bb5780601f10611790576101008083540402835291602001916117bb565b820191906000526020600020905b81548152906001019060200180831161179e57829003601f168201915b5050505050905060006101f580546117d2906157c2565b905014156117e35780915050611867565b60006101f580546117f3906157c2565b9050111561186557600081511415611839576101f561181184612700565b604051602001611822929190614fac565b604051602081830303815290604052915050611867565b6101f58160405160200161184e929190614fac565b604051602081830303815290604052915050611867565b505b919050565b6000611889609760008481526020019081526020016000206128ad565b9050919050565b6118c17fa49807205ce4d355092ef5a8a18f56e8913cf4a201fbe287825b095693c217756118bc611c2a565b61155b565b806118f957506118f87f9f2df0fed2c77648de5860a4cc508cd0818c85b8b8a1ab4ceeef8d981c8956a66118f3611c2a565b61155b565b5b8061193d5750611907611c2a565b73ffffffffffffffffffffffffffffffffffffffff16611925611502565b73ffffffffffffffffffffffffffffffffffffffff16145b61197c576040517f08c379a000000000000000000000000000000000000000000000000000000000815260040161197390615489565b60405180910390fd5b61198683836128c2565b6119908282612a9c565b505050565b7f9f2df0fed2c77648de5860a4cc508cd0818c85b8b8a1ab4ceeef8d981c8956a681565b6119c282610aa0565b6119d3816119ce611c2a565b612b22565b6119dd8383612067565b505050565b7f65d7a28e3265b37a6474929f336521b332c1681b933f6cb9f3376673440d862a81565b600061010060008473ffffffffffffffffffffffffffffffffffffffff1673ffffffffffffffffffffffffffffffffffffffff16815260200190815260200160002060008373ffffffffffffffffffffffffffffffffffffffff1673ffffffffffffffffffffffffffffffffffffffff16815260200190815260200160002060009054906101000a900460ff16905092915050565b611aa3611c2a565b73ffffffffffffffffffffffffffffffffffffffff16611ac1611502565b73ffffffffffffffffffffffffffffffffffffffff1614611b17576040517f08c379a0000000000000000000000000000000000000000000000000000000008152600401611b0e90615389565b60405180910390fd5b611b2081612bbf565b611b2d6000801b82612059565b611b416000801b611b3c611c2a565b610d1d565b50565b60007f780e9d63000000000000000000000000000000000000000000000000000000007bffffffffffffffffffffffffffffffffffffffffffffffffffffffff1916827bffffffffffffffffffffffffffffffffffffffffffffffffffffffff19161480611bb75750611bb682612cb7565b5b9050919050565b60008073ffffffffffffffffffffffffffffffffffffffff1660fd600084815260200190815260200160002060009054906101000a900473ffffffffffffffffffffffffffffffffffffffff1673ffffffffffffffffffffffffffffffffffffffff1614159050919050565b600033905090565b8160ff600083815260200190815260200160002060006101000a81548173ffffffffffffffffffffffffffffffffffffffff021916908373ffffffffffffffffffffffffffffffffffffffff160217905550808273ffffffffffffffffffffffffffffffffffffffff16611ca5836110b6565b73ffffffffffffffffffffffffffffffffffffffff167f8c5be1e5ebec7d5bd14f71427d1e84f3dd0314c0f7b2291e5b200ac8c7c3b92560405160405180910390a45050565b6000611cf682611bbe565b611d35576040517f08c379a0000000000000000000000000000000000000000000000000000000008152600401611d2c90615249565b60405180910390fd5b6000611d40836110b6565b90508073ffffffffffffffffffffffffffffffffffffffff168473ffffffffffffffffffffffffffffffffffffffff161480611daf57508373ffffffffffffffffffffffffffffffffffffffff16611d9784610858565b73ffffffffffffffffffffffffffffffffffffffff16145b80611dc05750611dbf8185611a06565b5b91505092915050565b8273ffffffffffffffffffffffffffffffffffffffff16611de9826110b6565b73ffffffffffffffffffffffffffffffffffffffff1614611e3f576040517f08c379a0000000000000000000000000000000000000000000000000000000008152600401611e3690615189565b60405180910390fd5b600073ffffffffffffffffffffffffffffffffffffffff168273ffffffffffffffffffffffffffffffffffffffff161415611eaf576040517f08c379a0000000000000000000000000000000000000000000000000000000008152600401611ea690615209565b60405180910390fd5b611eba838383612d99565b611ec5600082611c32565b600160fe60008573ffffffffffffffffffffffffffffffffffffffff1673ffffffffffffffffffffffffffffffffffffffff1681526020019081526020016000206000828254611f1591906156a4565b92505081905550600160fe60008473ffffffffffffffffffffffffffffffffffffffff1673ffffffffffffffffffffffffffffffffffffffff1681526020019081526020016000206000828254611f6c91906155c3565b925050819055508160fd600083815260200190815260200160002060006101000a81548173ffffffffffffffffffffffffffffffffffffffff021916908373ffffffffffffffffffffffffffffffffffffffff160217905550808273ffffffffffffffffffffffffffffffffffffffff168473ffffffffffffffffffffffffffffffffffffffff167fddf252ad1be2c89b69c2b068fc378daa952ba7f163c4a11628f55a4df523b3ef60405160405180910390a461202b838383612da9565b505050565b61203982610aa0565b61204a81612045611c2a565b612b22565b6120548383612dae565b505050565b6120638282612dae565b5050565b6120718282612de2565b6120968160976000858152602001908152602001600020612ec490919063ffffffff16565b505050565b6120a361109e565b6120e2576040517f08c379a00000000000000000000000000000000000000000000000000000000081526004016120d990615109565b60405180910390fd5b600061019160006101000a81548160ff0219169083151502179055507f5db9ee0a495bf2e6ff9c91a7834c1ba4fdd244a5e8aa4e537bd38aeae4b073aa612127611c2a565b604051612134919061500a565b60405180910390a1565b6000612149826110b6565b905061215781600084612d99565b612162600083611c32565b600160fe60008373ffffffffffffffffffffffffffffffffffffffff1673ffffffffffffffffffffffffffffffffffffffff16815260200190815260200160002060008282546121b291906156a4565b9250508190555060fd600083815260200190815260200160002060006101000a81549073ffffffffffffffffffffffffffffffffffffffff021916905581600073ffffffffffffffffffffffffffffffffffffffff168273ffffffffffffffffffffffffffffffffffffffff167fddf252ad1be2c89b69c2b068fc378daa952ba7f163c4a11628f55a4df523b3ef60405160405180910390a461225781600084612da9565b5050565b600061226630612ef4565b15905090565b600060019054906101000a900460ff166122945760008054906101000a900460ff161561229d565b61229c61225b565b5b6122dc576040517f08c379a00000000000000000000000000000000000000000000000000000000081526004016122d390615309565b60405180910390fd5b60008060019054906101000a900460ff16159050801561232c576001600060016101000a81548160ff02191690831515021790555060016000806101000a81548160ff0219169083151502179055505b612334612f17565b61233c612f68565b612344612fb9565b61234c61300a565b612356858561305b565b61235e6130dc565b61236661312d565b61236e61318e565b6123766131df565b61237e61324c565b61238a8585858561329d565b80156123ab5760008060016101000a81548160ff0219169083151502179055505b5050505050565b600060c960009054906101000a900473ffffffffffffffffffffffffffffffffffffffff1690508160c960006101000a81548173ffffffffffffffffffffffffffffffffffffffff021916908373ffffffffffffffffffffffffffffffffffffffff1602179055508173ffffffffffffffffffffffffffffffffffffffff168173ffffffffffffffffffffffffffffffffffffffff167f8be0079c531659141344cd1fd0a4f28419497f9722a3daafe3b4186f6b6457e060405160405180910390a35050565b61248061109e565b156124c0576040517f08c379a00000000000000000000000000000000000000000000000000000000081526004016124b790615289565b60405180910390fd5b600161019160006101000a81548160ff0219169083151502179055507f62e78cea01bee320cd4e420270b5ea74000d11b0c9f74754ebdbfc544b05a258612505611c2a565b604051612512919061500a565b60405180910390a1565b600061252b836000018361346f565b60001c905092915050565b8173ffffffffffffffffffffffffffffffffffffffff168373ffffffffffffffffffffffffffffffffffffffff1614156125a5576040517f08c379a000000000000000000000000000000000000000000000000000000000815260040161259c90615229565b60405180910390fd5b8061010060008573ffffffffffffffffffffffffffffffffffffffff1673ffffffffffffffffffffffffffffffffffffffff16815260200190815260200160002060008473ffffffffffffffffffffffffffffffffffffffff1673ffffffffffffffffffffffffffffffffffffffff16815260200190815260200160002060006101000a81548160ff0219169083151502179055508173ffffffffffffffffffffffffffffffffffffffff168373ffffffffffffffffffffffffffffffffffffffff167f17307eab39ab6107e8899845ad3d59bd9653f200f220920489ca2b5937696c31836040516126979190615071565b60405180910390a3505050565b6126af848484611dc9565b6126bb848484846134c0565b6126fa576040517f08c379a00000000000000000000000000000000000000000000000000000000081526004016126f190615149565b60405180910390fd5b50505050565b60606000821415612748576040518060400160405280600181526020017f300000000000000000000000000000000000000000000000000000000000000081525090506128a8565b600082905060005b6000821461277a57808061276390615825565b915050600a826127739190615619565b9150612750565b60008167ffffffffffffffff8111156127bc577f4e487b7100000000000000000000000000000000000000000000000000000000600052604160045260246000fd5b6040519080825280601f01601f1916602001820160405280156127ee5781602001600182028036833780820191505090505b5090505b600085146128a15760018261280791906156a4565b9150600a85612816919061586e565b603061282291906155c3565b60f81b81838151811061285e577f4e487b7100000000000000000000000000000000000000000000000000000000600052603260045260246000fd5b60200101907effffffffffffffffffffffffffffffffffffffffffffffffffffffffffffff1916908160001a905350600a8561289a9190615619565b94506127f2565b8093505050505b919050565b60006128bb82600001613657565b9050919050565b600073ffffffffffffffffffffffffffffffffffffffff168273ffffffffffffffffffffffffffffffffffffffff161415612932576040517f08c379a000000000000000000000000000000000000000000000000000000000815260040161292990615329565b60405180910390fd5b61293b81611bbe565b1561297b576040517f08c379a0000000000000000000000000000000000000000000000000000000008152600401612972906151a9565b60405180910390fd5b61298760008383612d99565b600160fe60008473ffffffffffffffffffffffffffffffffffffffff1673ffffffffffffffffffffffffffffffffffffffff16815260200190815260200160002060008282546129d791906155c3565b925050819055508160fd600083815260200190815260200160002060006101000a81548173ffffffffffffffffffffffffffffffffffffffff021916908373ffffffffffffffffffffffffffffffffffffffff160217905550808273ffffffffffffffffffffffffffffffffffffffff16600073ffffffffffffffffffffffffffffffffffffffff167fddf252ad1be2c89b69c2b068fc378daa952ba7f163c4a11628f55a4df523b3ef60405160405180910390a4612a9860008383612da9565b5050565b612aa582611bbe565b612ae4576040517f08c379a0000000000000000000000000000000000000000000000000000000008152600401612adb90615369565b60405180910390fd5b6000819050600081511115612b1d57816101f660008581526020019081526020016000209080519060200190612b1b929190614341565b505b505050565b612b2c828261155b565b612bbb57612b518173ffffffffffffffffffffffffffffffffffffffff166014613668565b612b5f8360001c6020613668565b604051602001612b70929190614fd0565b6040516020818303038152906040526040517f08c379a0000000000000000000000000000000000000000000000000000000008152600401612bb291906150a7565b60405180910390fd5b5050565b612bc7611c2a565b73ffffffffffffffffffffffffffffffffffffffff16612be5611502565b73ffffffffffffffffffffffffffffffffffffffff1614612c3b576040517f08c379a0000000000000000000000000000000000000000000000000000000008152600401612c3290615389565b60405180910390fd5b600073ffffffffffffffffffffffffffffffffffffffff168173ffffffffffffffffffffffffffffffffffffffff161415612cab576040517f08c379a0000000000000000000000000000000000000000000000000000000008152600401612ca290615169565b60405180910390fd5b612cb4816123b2565b50565b60007f80ac58cd000000000000000000000000000000000000000000000000000000007bffffffffffffffffffffffffffffffffffffffffffffffffffffffff1916827bffffffffffffffffffffffffffffffffffffffffffffffffffffffff19161480612d8257507f5b5e139f000000000000000000000000000000000000000000000000000000007bffffffffffffffffffffffffffffffffffffffffffffffffffffffff1916827bffffffffffffffffffffffffffffffffffffffffffffffffffffffff1916145b80612d925750612d9182613962565b5b9050919050565b612da48383836139dc565b505050565b505050565b612db88282613a34565b612ddd8160976000858152602001908152602001600020613b1590919063ffffffff16565b505050565b612dec828261155b565b15612ec05760006065600084815260200190815260200160002060000160008373ffffffffffffffffffffffffffffffffffffffff1673ffffffffffffffffffffffffffffffffffffffff16815260200190815260200160002060006101000a81548160ff021916908315150217905550612e65611c2a565b73ffffffffffffffffffffffffffffffffffffffff168173ffffffffffffffffffffffffffffffffffffffff16837ff6391f5c32d9c69d2a47ea670b442974b53935d1edc7fd64eb21e047a839171b60405160405180910390a45b5050565b6000612eec836000018373ffffffffffffffffffffffffffffffffffffffff1660001b613b45565b905092915050565b6000808273ffffffffffffffffffffffffffffffffffffffff163b119050919050565b600060019054906101000a900460ff16612f66576040517f08c379a0000000000000000000000000000000000000000000000000000000008152600401612f5d90615429565b60405180910390fd5b565b600060019054906101000a900460ff16612fb7576040517f08c379a0000000000000000000000000000000000000000000000000000000008152600401612fae90615429565b60405180910390fd5b565b600060019054906101000a900460ff16613008576040517f08c379a0000000000000000000000000000000000000000000000000000000008152600401612fff90615429565b60405180910390fd5b565b600060019054906101000a900460ff16613059576040517f08c379a000000000000000000000000000000000000000000000000000000000815260040161305090615429565b60405180910390fd5b565b600060019054906101000a900460ff166130aa576040517f08c379a00000000000000000000000000000000000000000000000000000000081526004016130a190615429565b60405180910390fd5b8160fb90805190602001906130c0929190614341565b508060fc90805190602001906130d7929190614341565b505050565b600060019054906101000a900460ff1661312b576040517f08c379a000000000000000000000000000000000000000000000000000000000815260040161312290615429565b60405180910390fd5b565b600060019054906101000a900460ff1661317c576040517f08c379a000000000000000000000000000000000000000000000000000000000815260040161317390615429565b60405180910390fd5b61318c613187611c2a565b6123b2565b565b600060019054906101000a900460ff166131dd576040517f08c379a00000000000000000000000000000000000000000000000000000000081526004016131d490615429565b60405180910390fd5b565b600060019054906101000a900460ff1661322e576040517f08c379a000000000000000000000000000000000000000000000000000000000815260040161322590615429565b60405180910390fd5b600061019160006101000a81548160ff021916908315150217905550565b600060019054906101000a900460ff1661329b576040517f08c379a000000000000000000000000000000000000000000000000000000000815260040161329290615429565b60405180910390fd5b565b600060019054906101000a900460ff166132c55760008054906101000a900460ff16156132ce565b6132cd61225b565b5b61330d576040517f08c379a000000000000000000000000000000000000000000000000000000000815260040161330490615309565b60405180910390fd5b60008060019054906101000a900460ff16159050801561335d576001600060016101000a81548160ff02191690831515021790555060016000806101000a81548160ff0219169083151502179055505b826101f59080519060200190613374929190614341565b506133896000801b613384611c2a565b612059565b6133b37fa49807205ce4d355092ef5a8a18f56e8913cf4a201fbe287825b095693c2177583612059565b6133fd7f9f2df0fed2c77648de5860a4cc508cd0818c85b8b8a1ab4ceeef8d981c8956a67fa49807205ce4d355092ef5a8a18f56e8913cf4a201fbe287825b095693c21775613ccb565b6134477f65d7a28e3265b37a6474929f336521b332c1681b933f6cb9f3376673440d862a7fa49807205ce4d355092ef5a8a18f56e8913cf4a201fbe287825b095693c21775613ccb565b80156134685760008060016101000a81548160ff0219169083151502179055505b5050505050565b60008260000182815481106134ad577f4e487b7100000000000000000000000000000000000000000000000000000000600052603260045260246000fd5b9060005260206000200154905092915050565b60006134e18473ffffffffffffffffffffffffffffffffffffffff16612ef4565b1561364a578373ffffffffffffffffffffffffffffffffffffffff1663150b7a0261350a611c2a565b8786866040518563ffffffff1660e01b815260040161352c9493929190615025565b602060405180830381600087803b15801561354657600080fd5b505af192505050801561357757506040513d601f19601f8201168201806040525081019061357491906148ab565b60015b6135fa573d80600081146135a7576040519150601f19603f3d011682016040523d82523d6000602084013e6135ac565b606091505b506000815114156135f2576040517f08c379a00000000000000000000000000000000000000000000000000000000081526004016135e990615149565b60405180910390fd5b805181602001fd5b63150b7a0260e01b7bffffffffffffffffffffffffffffffffffffffffffffffffffffffff1916817bffffffffffffffffffffffffffffffffffffffffffffffffffffffff19161491505061364f565b600190505b949350505050565b600081600001805490509050919050565b60606000600283600261367b919061564a565b61368591906155c3565b67ffffffffffffffff8111156136c4577f4e487b7100000000000000000000000000000000000000000000000000000000600052604160045260246000fd5b6040519080825280601f01601f1916602001820160405280156136f65781602001600182028036833780820191505090505b5090507f300000000000000000000000000000000000000000000000000000000000000081600081518110613754577f4e487b7100000000000000000000000000000000000000000000000000000000600052603260045260246000fd5b60200101907effffffffffffffffffffffffffffffffffffffffffffffffffffffffffffff1916908160001a9053507f7800000000000000000000000000000000000000000000000000000000000000816001815181106137de577f4e487b7100000000000000000000000000000000000000000000000000000000600052603260045260246000fd5b60200101907effffffffffffffffffffffffffffffffffffffffffffffffffffffffffffff1916908160001a9053506000600184600261381e919061564a565b61382891906155c3565b90505b6001811115613914577f3031323334353637383961626364656600000000000000000000000000000000600f861660108110613890577f4e487b7100000000000000000000000000000000000000000000000000000000600052603260045260246000fd5b1a60f81b8282815181106138cd577f4e487b7100000000000000000000000000000000000000000000000000000000600052603260045260246000fd5b60200101907effffffffffffffffffffffffffffffffffffffffffffffffffffffffffffff1916908160001a905350600485901c94508061390d90615798565b905061382b565b5060008414613958576040517f08c379a000000000000000000000000000000000000000000000000000000000815260040161394f906150c9565b60405180910390fd5b8091505092915050565b60007f5a05180f000000000000000000000000000000000000000000000000000000007bffffffffffffffffffffffffffffffffffffffffffffffffffffffff1916827bffffffffffffffffffffffffffffffffffffffffffffffffffffffff191614806139d557506139d482613d27565b5b9050919050565b6139e7838383613da1565b6139ef61109e565b15613a2f576040517f08c379a0000000000000000000000000000000000000000000000000000000008152600401613a26906150e9565b60405180910390fd5b505050565b613a3e828261155b565b613b115760016065600084815260200190815260200160002060000160008373ffffffffffffffffffffffffffffffffffffffff1673ffffffffffffffffffffffffffffffffffffffff16815260200190815260200160002060006101000a81548160ff021916908315150217905550613ab6611c2a565b73ffffffffffffffffffffffffffffffffffffffff168173ffffffffffffffffffffffffffffffffffffffff16837f2f8788117e7eff1d82e926ec794901d17c78024a50270940304540a733656f0d60405160405180910390a45b5050565b6000613b3d836000018373ffffffffffffffffffffffffffffffffffffffff1660001b613eb5565b905092915050565b60008083600101600084815260200190815260200160002054905060008114613cbf576000600182613b7791906156a4565b9050600060018660000180549050613b8f91906156a4565b9050818114613c4a576000866000018281548110613bd6577f4e487b7100000000000000000000000000000000000000000000000000000000600052603260045260246000fd5b9060005260206000200154905080876000018481548110613c20577f4e487b7100000000000000000000000000000000000000000000000000000000600052603260045260246000fd5b90600052602060002001819055508387600101600083815260200190815260200160002081905550505b85600001805480613c84577f4e487b7100000000000000000000000000000000000000000000000000000000600052603160045260246000fd5b600190038181906000526020600020016000905590558560010160008681526020019081526020016000206000905560019350505050613cc5565b60009150505b92915050565b6000613cd683610aa0565b90508160656000858152602001908152602001600020600101819055508181847fbd79b86ffe0ab8e8776151514217cd7cacd52c909f66475c3af44e129f0b00ff60405160405180910390a4505050565b60007f7965db0b000000000000000000000000000000000000000000000000000000007bffffffffffffffffffffffffffffffffffffffffffffffffffffffff1916827bffffffffffffffffffffffffffffffffffffffffffffffffffffffff19161480613d9a5750613d9982613f25565b5b9050919050565b613dac838383613f8f565b600073ffffffffffffffffffffffffffffffffffffffff168373ffffffffffffffffffffffffffffffffffffffff161415613def57613dea81613f94565b613e2e565b8173ffffffffffffffffffffffffffffffffffffffff168373ffffffffffffffffffffffffffffffffffffffff1614613e2d57613e2c8382613fe0565b5b5b600073ffffffffffffffffffffffffffffffffffffffff168273ffffffffffffffffffffffffffffffffffffffff161415613e7157613e6c81614153565b613eb0565b8273ffffffffffffffffffffffffffffffffffffffff168273ffffffffffffffffffffffffffffffffffffffff1614613eaf57613eae828261429d565b5b5b505050565b6000613ec1838361431e565b613f1a578260000182908060018154018082558091505060019003906000526020600020016000909190919091505582600001805490508360010160008481526020019081526020016000208190555060019050613f1f565b600090505b92915050565b60007f01ffc9a7000000000000000000000000000000000000000000000000000000007bffffffffffffffffffffffffffffffffffffffffffffffffffffffff1916827bffffffffffffffffffffffffffffffffffffffffffffffffffffffff1916149050919050565b505050565b61012f8054905061013060008381526020019081526020016000208190555061012f81908060018154018082558091505060019003906000526020600020016000909190919091505550565b60006001613fed846111ef565b613ff791906156a4565b9050600061012e60008481526020019081526020016000205490508181146140e057600061012d60008673ffffffffffffffffffffffffffffffffffffffff1673ffffffffffffffffffffffffffffffffffffffff16815260200190815260200160002060008481526020019081526020016000205490508061012d60008773ffffffffffffffffffffffffffffffffffffffff1673ffffffffffffffffffffffffffffffffffffffff1681526020019081526020016000206000848152602001908152602001600020819055508161012e600083815260200190815260200160002081905550505b61012e60008481526020019081526020016000206000905561012d60008573ffffffffffffffffffffffffffffffffffffffff1673ffffffffffffffffffffffffffffffffffffffff16815260200190815260200160002060008381526020019081526020016000206000905550505050565b6000600161012f8054905061416891906156a4565b905060006101306000848152602001908152602001600020549050600061012f83815481106141c0577f4e487b7100000000000000000000000000000000000000000000000000000000600052603260045260246000fd5b906000526020600020015490508061012f8381548110614209577f4e487b7100000000000000000000000000000000000000000000000000000000600052603260045260246000fd5b90600052602060002001819055508161013060008381526020019081526020016000208190555061013060008581526020019081526020016000206000905561012f805480614281577f4e487b7100000000000000000000000000000000000000000000000000000000600052603160045260246000fd5b6001900381819060005260206000200160009055905550505050565b60006142a8836111ef565b90508161012d60008573ffffffffffffffffffffffffffffffffffffffff1673ffffffffffffffffffffffffffffffffffffffff1681526020019081526020016000206000838152602001908152602001600020819055508061012e600084815260200190815260200160002081905550505050565b600080836001016000848152602001908152602001600020541415905092915050565b82805461434d906157c2565b90600052602060002090601f01602090048101928261436f57600085556143b6565b82601f1061438857805160ff19168380011785556143b6565b828001600101855582156143b6579182015b828111156143b557825182559160200191906001019061439a565b5b5090506143c391906143c7565b5090565b5b808211156143e05760008160009055506001016143c8565b5090565b60006143f76143f284615509565b6154e4565b90508281526020810184848401111561440f57600080fd5b61441a848285615756565b509392505050565b60006144356144308461553a565b6154e4565b90508281526020810184848401111561444d57600080fd5b614458848285615756565b509392505050565b60008135905061446f816161fc565b92915050565b60008135905061448481616213565b92915050565b6000813590506144998161622a565b92915050565b6000813590506144ae81616241565b92915050565b6000815190506144c381616241565b92915050565b600082601f8301126144da57600080fd5b81356144ea8482602086016143e4565b91505092915050565b600082601f83011261450457600080fd5b8135614514848260208601614422565b91505092915050565b60008135905061452c81616258565b92915050565b60006020828403121561454457600080fd5b600061455284828501614460565b91505092915050565b6000806040838503121561456e57600080fd5b600061457c85828601614460565b925050602061458d85828601614460565b9150509250929050565b6000806000606084860312156145ac57600080fd5b60006145ba86828701614460565b93505060206145cb86828701614460565b92505060406145dc8682870161451d565b9150509250925092565b600080600080608085870312156145fc57600080fd5b600061460a87828801614460565b945050602061461b87828801614460565b935050604061462c8782880161451d565b925050606085013567ffffffffffffffff81111561464957600080fd5b614655878288016144c9565b91505092959194509250565b6000806040838503121561467457600080fd5b600061468285828601614460565b925050602061469385828601614475565b9150509250929050565b600080604083850312156146b057600080fd5b60006146be85828601614460565b92505060206146cf8582860161448a565b9150509250929050565b600080604083850312156146ec57600080fd5b60006146fa85828601614460565b925050602061470b8582860161451d565b9150509250929050565b60008060006060848603121561472a57600080fd5b600061473886828701614460565b93505060206147498682870161451d565b925050604084013567ffffffffffffffff81111561476657600080fd5b614772868287016144f3565b9150509250925092565b60006020828403121561478e57600080fd5b600061479c84828501614475565b91505092915050565b600080604083850312156147b857600080fd5b60006147c685828601614475565b92505060206147d785828601614460565b9150509250929050565b6000602082840312156147f357600080fd5b60006148018482850161448a565b91505092915050565b6000806040838503121561481d57600080fd5b600061482b8582860161448a565b925050602061483c85828601614460565b9150509250929050565b6000806040838503121561485957600080fd5b60006148678582860161448a565b92505060206148788582860161451d565b9150509250929050565b60006020828403121561489457600080fd5b60006148a28482850161449f565b91505092915050565b6000602082840312156148bd57600080fd5b60006148cb848285016144b4565b91505092915050565b600080600080608085870312156148ea57600080fd5b600085013567ffffffffffffffff81111561490457600080fd5b614910878288016144f3565b945050602085013567ffffffffffffffff81111561492d57600080fd5b614939878288016144f3565b935050604085013567ffffffffffffffff81111561495657600080fd5b614962878288016144f3565b925050606061497387828801614460565b91505092959194509250565b60006020828403121561499157600080fd5b600061499f8482850161451d565b91505092915050565b6149b1816156d8565b82525050565b6149c0816156ea565b82525050565b6149cf816156f6565b82525050565b60006149e082615580565b6149ea8185615596565b93506149fa818560208601615765565b614a038161595b565b840191505092915050565b6000614a198261558b565b614a2381856155a7565b9350614a33818560208601615765565b614a3c8161595b565b840191505092915050565b6000614a528261558b565b614a5c81856155b8565b9350614a6c818560208601615765565b80840191505092915050565b60008154614a85816157c2565b614a8f81866155b8565b94506001821660008114614aaa5760018114614abb57614aee565b60ff19831686528186019350614aee565b614ac48561556b565b60005b83811015614ae657815481890152600182019150602081019050614ac7565b838801955050505b50505092915050565b6000614b046020836155a7565b9150614b0f8261596c565b602082019050919050565b6000614b27602b836155a7565b9150614b3282615995565b604082019050919050565b6000614b4a6014836155a7565b9150614b55826159e4565b602082019050919050565b6000614b6d602b836155a7565b9150614b7882615a0d565b604082019050919050565b6000614b906032836155a7565b9150614b9b82615a5c565b604082019050919050565b6000614bb36026836155a7565b9150614bbe82615aab565b604082019050919050565b6000614bd66025836155a7565b9150614be182615afa565b604082019050919050565b6000614bf9601c836155a7565b9150614c0482615b49565b602082019050919050565b6000614c1c6014836155a7565b9150614c2782615b72565b602082019050919050565b6000614c3f6027836155a7565b9150614c4a82615b9b565b604082019050919050565b6000614c626024836155a7565b9150614c6d82615bea565b604082019050919050565b6000614c856019836155a7565b9150614c9082615c39565b602082019050919050565b6000614ca8602c836155a7565b9150614cb382615c62565b604082019050919050565b6000614ccb6014836155a7565b9150614cd682615cb1565b602082019050919050565b6000614cee6010836155a7565b9150614cf982615cda565b602082019050919050565b6000614d116038836155a7565b9150614d1c82615d03565b604082019050919050565b6000614d34602a836155a7565b9150614d3f82615d52565b604082019050919050565b6000614d576029836155a7565b9150614d6282615da1565b604082019050919050565b6000614d7a602e836155a7565b9150614d8582615df0565b604082019050919050565b6000614d9d6020836155a7565b9150614da882615e3f565b602082019050919050565b6000614dc0602c836155a7565b9150614dcb82615e68565b604082019050919050565b6000614de3602c836155a7565b9150614dee82615eb7565b604082019050919050565b6000614e066020836155a7565b9150614e1182615f06565b602082019050919050565b6000614e29602f836155a7565b9150614e3482615f2f565b604082019050919050565b6000614e4c6021836155a7565b9150614e5782615f7e565b604082019050919050565b6000614e6f6031836155a7565b9150614e7a82615fcd565b604082019050919050565b6000614e92602c836155a7565b9150614e9d8261601c565b604082019050919050565b6000614eb5602b836155a7565b9150614ec08261606b565b604082019050919050565b6000614ed86017836155b8565b9150614ee3826160ba565b601782019050919050565b6000614efb6015836155a7565b9150614f06826160e3565b602082019050919050565b6000614f1e6030836155a7565b9150614f298261610c565b604082019050919050565b6000614f416015836155a7565b9150614f4c8261615b565b602082019050919050565b6000614f646011836155b8565b9150614f6f82616184565b601182019050919050565b6000614f87602f836155a7565b9150614f92826161ad565b604082019050919050565b614fa68161574c565b82525050565b6000614fb88285614a78565b9150614fc48284614a47565b91508190509392505050565b6000614fdb82614ecb565b9150614fe78285614a47565b9150614ff282614f57565b9150614ffe8284614a47565b91508190509392505050565b600060208201905061501f60008301846149a8565b92915050565b600060808201905061503a60008301876149a8565b61504760208301866149a8565b6150546040830185614f9d565b818103606083015261506681846149d5565b905095945050505050565b600060208201905061508660008301846149b7565b92915050565b60006020820190506150a160008301846149c6565b92915050565b600060208201905081810360008301526150c18184614a0e565b905092915050565b600060208201905081810360008301526150e281614af7565b9050919050565b6000602082019050818103600083015261510281614b1a565b9050919050565b6000602082019050818103600083015261512281614b3d565b9050919050565b6000602082019050818103600083015261514281614b60565b9050919050565b6000602082019050818103600083015261516281614b83565b9050919050565b6000602082019050818103600083015261518281614ba6565b9050919050565b600060208201905081810360008301526151a281614bc9565b9050919050565b600060208201905081810360008301526151c281614bec565b9050919050565b600060208201905081810360008301526151e281614c0f565b9050919050565b6000602082019050818103600083015261520281614c32565b9050919050565b6000602082019050818103600083015261522281614c55565b9050919050565b6000602082019050818103600083015261524281614c78565b9050919050565b6000602082019050818103600083015261526281614c9b565b9050919050565b6000602082019050818103600083015261528281614cbe565b9050919050565b600060208201905081810360008301526152a281614ce1565b9050919050565b600060208201905081810360008301526152c281614d04565b9050919050565b600060208201905081810360008301526152e281614d27565b9050919050565b6000602082019050818103600083015261530281614d4a565b9050919050565b6000602082019050818103600083015261532281614d6d565b9050919050565b6000602082019050818103600083015261534281614d90565b9050919050565b6000602082019050818103600083015261536281614db3565b9050919050565b6000602082019050818103600083015261538281614dd6565b9050919050565b600060208201905081810360008301526153a281614df9565b9050919050565b600060208201905081810360008301526153c281614e1c565b9050919050565b600060208201905081810360008301526153e281614e3f565b9050919050565b6000602082019050818103600083015261540281614e62565b9050919050565b6000602082019050818103600083015261542281614e85565b9050919050565b6000602082019050818103600083015261544281614ea8565b9050919050565b6000602082019050818103600083015261546281614eee565b9050919050565b6000602082019050818103600083015261548281614f11565b9050919050565b600060208201905081810360008301526154a281614f34565b9050919050565b600060208201905081810360008301526154c281614f7a565b9050919050565b60006020820190506154de6000830184614f9d565b92915050565b60006154ee6154ff565b90506154fa82826157f4565b919050565b6000604051905090565b600067ffffffffffffffff8211156155245761552361592c565b5b61552d8261595b565b9050602081019050919050565b600067ffffffffffffffff8211156155555761555461592c565b5b61555e8261595b565b9050602081019050919050565b60008190508160005260206000209050919050565b600081519050919050565b600081519050919050565b600082825260208201905092915050565b600082825260208201905092915050565b600081905092915050565b60006155ce8261574c565b91506155d98361574c565b9250827fffffffffffffffffffffffffffffffffffffffffffffffffffffffffffffffff0382111561560e5761560d61589f565b5b828201905092915050565b60006156248261574c565b915061562f8361574c565b92508261563f5761563e6158ce565b5b828204905092915050565b60006156558261574c565b91506156608361574c565b9250817fffffffffffffffffffffffffffffffffffffffffffffffffffffffffffffffff04831182151516156156995761569861589f565b5b828202905092915050565b60006156af8261574c565b91506156ba8361574c565b9250828210156156cd576156cc61589f565b5b828203905092915050565b60006156e38261572c565b9050919050565b60008115159050919050565b6000819050919050565b60007fffffffff0000000000000000000000000000000000000000000000000000000082169050919050565b600073ffffffffffffffffffffffffffffffffffffffff82169050919050565b6000819050919050565b82818337600083830152505050565b60005b83811015615783578082015181840152602081019050615768565b83811115615792576000848401525b50505050565b60006157a38261574c565b915060008214156157b7576157b661589f565b5b600182039050919050565b600060028204905060018216806157da57607f821691505b602082108114156157ee576157ed6158fd565b5b50919050565b6157fd8261595b565b810181811067ffffffffffffffff8211171561581c5761581b61592c565b5b80604052505050565b60006158308261574c565b91507fffffffffffffffffffffffffffffffffffffffffffffffffffffffffffffffff8214156158635761586261589f565b5b600182019050919050565b60006158798261574c565b91506158848361574c565b925082615894576158936158ce565b5b828206905092915050565b7f4e487b7100000000000000000000000000000000000000000000000000000000600052601160045260246000fd5b7f4e487b7100000000000000000000000000000000000000000000000000000000600052601260045260246000fd5b7f4e487b7100000000000000000000000000000000000000000000000000000000600052602260045260246000fd5b7f4e487b7100000000000000000000000000000000000000000000000000000000600052604160045260246000fd5b6000601f19601f8301169050919050565b7f537472696e67733a20686578206c656e67746820696e73756666696369656e74600082015250565b7f4552433732315061757361626c653a20746f6b656e207472616e73666572207760008201527f68696c6520706175736564000000000000000000000000000000000000000000602082015250565b7f5061757361626c653a206e6f7420706175736564000000000000000000000000600082015250565b7f455243373231456e756d657261626c653a206f776e657220696e646578206f7560008201527f74206f6620626f756e6473000000000000000000000000000000000000000000602082015250565b7f4552433732313a207472616e7366657220746f206e6f6e20455243373231526560008201527f63656976657220696d706c656d656e7465720000000000000000000000000000602082015250565b7f4f776e61626c653a206e6577206f776e657220697320746865207a65726f206160008201527f6464726573730000000000000000000000000000000000000000000000000000602082015250565b7f4552433732313a207472616e736665722066726f6d20696e636f72726563742060008201527f6f776e6572000000000000000000000000000000000000000000000000000000602082015250565b7f4552433732313a20746f6b656e20616c7265616479206d696e74656400000000600082015250565b7f6e6f742061206d696e7465722061646472657373000000000000000000000000600082015250565b7f65786163746c79206f6e6520616464726573732063616e20686176652061646d60008201527f696e20726f6c6500000000000000000000000000000000000000000000000000602082015250565b7f4552433732313a207472616e7366657220746f20746865207a65726f2061646460008201527f7265737300000000000000000000000000000000000000000000000000000000602082015250565b7f4552433732313a20617070726f766520746f2063616c6c657200000000000000600082015250565b7f4552433732313a206f70657261746f7220717565727920666f72206e6f6e657860008201527f697374656e7420746f6b656e0000000000000000000000000000000000000000602082015250565b7f5265737472696374656420746f2061646d696e2e000000000000000000000000600082015250565b7f5061757361626c653a2070617573656400000000000000000000000000000000600082015250565b7f4552433732313a20617070726f76652063616c6c6572206973206e6f74206f7760008201527f6e6572206e6f7220617070726f76656420666f7220616c6c0000000000000000602082015250565b7f4552433732313a2062616c616e636520717565727920666f7220746865207a6560008201527f726f206164647265737300000000000000000000000000000000000000000000602082015250565b7f4552433732313a206f776e657220717565727920666f72206e6f6e657869737460008201527f656e7420746f6b656e0000000000000000000000000000000000000000000000602082015250565b7f496e697469616c697a61626c653a20636f6e747261637420697320616c72656160008201527f647920696e697469616c697a6564000000000000000000000000000000000000602082015250565b7f4552433732313a206d696e7420746f20746865207a65726f2061646472657373600082015250565b7f4552433732313a20617070726f76656420717565727920666f72206e6f6e657860008201527f697374656e7420746f6b656e0000000000000000000000000000000000000000602082015250565b7f4552433732314d657461646174613a2055524920736574206f66206e6f6e657860008201527f697374656e7420746f6b656e0000000000000000000000000000000000000000602082015250565b7f4f776e61626c653a2063616c6c6572206973206e6f7420746865206f776e6572600082015250565b7f4552433732314d657461646174613a2055524920717565727920666f72206e6f60008201527f6e6578697374656e7420746f6b656e0000000000000000000000000000000000602082015250565b7f4552433732313a20617070726f76616c20746f2063757272656e74206f776e6560008201527f7200000000000000000000000000000000000000000000000000000000000000602082015250565b7f4552433732313a207472616e736665722063616c6c6572206973206e6f74206f60008201527f776e6572206e6f7220617070726f766564000000000000000000000000000000602082015250565b7f455243373231456e756d657261626c653a20676c6f62616c20696e646578206f60008201527f7574206f6620626f756e64730000000000000000000000000000000000000000602082015250565b7f496e697469616c697a61626c653a20636f6e7472616374206973206e6f74206960008201527f6e697469616c697a696e67000000000000000000000000000000000000000000602082015250565b7f416363657373436f6e74726f6c3a206163636f756e7420000000000000000000600082015250565b7f5265737472696374656420746f207061757365722e0000000000000000000000600082015250565b7f4552433732314275726e61626c653a2063616c6c6572206973206e6f74206f7760008201527f6e6572206e6f7220617070726f76656400000000000000000000000000000000602082015250565b7f5265737472696374656420746f206d696e7465722e0000000000000000000000600082015250565b7f206973206d697373696e6720726f6c6520000000000000000000000000000000600082015250565b7f416363657373436f6e74726f6c3a2063616e206f6e6c792072656e6f756e636560008201527f20726f6c657320666f722073656c660000000000000000000000000000000000602082015250565b616205816156d8565b811461621057600080fd5b50565b61621c816156ea565b811461622757600080fd5b50565b616233816156f6565b811461623e57600080fd5b50565b61624a81615700565b811461625557600080fd5b50565b6162618161574c565b811461626c57600080fd5b5056fea2646970667358221220bb7e0c2bc70096a80d4cbfb3e6feaca5b30d3627d370992e03aea2c0e4ef7e3764736f6c63430008040033",
  "linkReferences": {},
  "deployedLinkReferences": {}
}